:020000040800F2
:10000000D8110020D10100080D08000805080008DB
:100010000908000851060008470F0008000000000A
:10002000000000000000000000000000E90C0008D3
:1000300055060008000000008D0C0008FD0D0008AA
:10004000EB010008EB010008EB010008EB010008E0
:10005000EB010008EB010008EB010008EB010008D0
:10006000EB010008EB010008EB010008EB010008C0
:10007000EB010008EB010008EB010008EB010008B0
:10008000EB010008EB01000881020008EB01000809
:10009000EB010008EB010008EB010008EB01000890
:1000A000EB010008EB010008EB010008EB01000880
:1000B000EB010008EB010008EB010008EB01000870
:1000C000EB010008EB010008EB010008EB01000860
:1000D000EB010008610E0008EB010008EB010008CD
:1000E000EB010008EB010008EB01000800F002F84A
:1000F00000F05EF80AA090E8000C82448344AAF164
:100100000107DA4501D100F053F8AFF2090EBAE861
:100110000F0013F0010F18BFFB1A43F0010318473B
:10012000141800003418000010F8013B0A4413F0C2
:10013000030408BF10F8014B1D1108BF10F8015B44
:10014000641E05D010F8016B641E01F8016BF9D133
:10015000002D15D010F8014B03F00C030C2BA1EB74
:1001600004040ABF10F8013BA4EB8314A4EB03249E
:1001700005F1010314F8016B5B1E01F8016BF9D561
:10018000914238BF10F8013BD1D3704700230024BF
:1001900000250026103A28BF78C1FBD8520728BF97
:1001A00030C148BF0B6070471FB51FBD10B510BDF3
:1001B00000F033F81146FFF7F7FF00F011FF00F0F1
:1001C00051F803B4FFF7F2FF03BC00F0BEFE0000DD
:1001D0000948804709480047FEE7FEE7FEE7FEE7DB
:1001E000FEE7FEE7FEE7FEE7FEE7FEE70448054917
:1001F000054A064B70470000010E0008ED0000089C
:10020000D80B0020D8110020D80D0020D80D0020D8
:1002100070477047704770477047754600F02CF87C
:10022000AE4605006946534620F00700854618B0E3
:1002300020B5FFF7DBFFBDE820404FF000064FF090
:1002400000074FF000084FF0000B21F00701AC460B
:10025000ACE8C009ACE8C009ACE8C009ACE8C0092A
:100260008D46704710B50446AFF300802046BDE8C8
:100270001040FFF7A6BF000000487047780B002031
:1002800010B500224FF4A071294800F0D6F80121E2
:10029000274800F0BFF8012839D100BF02212448C7
:1002A00000F0B8F80028F9D0214800F0AFF8214953
:1002B0000880084600882049096808441E490860EB
:1002C0001E480078401C1D490870084600781C49EB
:1002D000097888421BD10020184908701648006828
:1002E00017490978B0FBF1F012490988401A6428CF
:1002F0000AD20120134908700F4800681049097894
:10030000B0FBF1F01049088000200B490860012281
:100310004FF4A071064800F090F80121044800F065
:100320002AF84FF4A071024800F028F810BD000030
:1003300000240140060800200C0800200B080020C3
:100340000A08002004080020080800200A460021AE
:100350004168024B1940114341607047FFFD3FFF68
:100360000A460021416821F01F0111434160704796
:10037000416282627047CA430260704700220A12DB
:10038000D3430360704721B1826842F0010282606A
:1003900003E0826822F001028260704710B50446D3
:1003A0001248844208D10121401500F08DFC002143
:1003B000601500F089FC17E00D48844208D1012146
:1003C000001500F081FC0021201500F07DFC0BE001
:1003D0000848844208D10121C80300F075FC0021BF
:1003E0004FF4004000F070FC10BD000000240140FC
:1003F00000280140003C0140014600208A6802F0CC
:1004000004020AB1012000E0002070470146C86CD8
:1004100080B270470246002013680B400BB10120E8
:1004200000E000207047014600208A6802F00802C0
:100430000AB1012000E00020704710B50023CBB2C4
:100440001AB144681C43446002E044689C43446021
:1004500010BD000030B502460020002350680F4C4C
:1004600020400D790C6844EA0524204350609068D0
:100470000B4C2040D1E902542C434D7944EA450409
:1004800020439060D06A20F470000C7C641EE4B2BB
:10049000234340EA0350D06230BD0000FFFEF0FF6E
:1004A000FDF7F1FFF0B504460D4600200021092DAF
:1004B00011DDE068A5F10A0606EB4607072606FAF5
:1004C00007F18843A5F10A0606EB460603FA06F192
:1004D0000843E0600CE0206905EB4507072606FAB3
:1004E00007F1884305EB450603FA06F1084320614E
:1004F000072A0FDA606B561E06EB86071F2606FAE0
:1005000007F18843561E06EB860605FA06F10843F6
:10051000606322E00D2A0FDA206BD61F06EB8607F8
:100520001F2606FA07F18843D61F06EB860605FA52
:1005300006F10843206310E0E06AA2F10D0606EB25
:1005400086071F2606FA07F18843A2F10D0606EB7F
:10055000860605FA06F10843E062F0BD816841F0C5
:1005600008018160704721B1826842F4A002826074
:1005700003E0826822F4A00282607047816841F043
:10058000040181607047000010B509210A48FFF797
:10059000E7FE40F6B47240F6FF710748FFF7E8FE49
:1005A00006490548FFF7D2FE01224FF4A071024828
:1005B000FFF743FF10BD000000240140000280004F
:1005C00000B587B001214FF4027000F06DFB4FF4CD
:1005D000004000F05DFB0220ADF8040000208DF823
:1005E000070001A9184800F036F81848FFF7D6FEB2
:1005F000002002908DF80C0001208DF80D004FF4C2
:10060000602004900020059001208DF8180002A9B8
:100610000E48FFF71FFF01210C48FFF7B4FE0B48FF
:10062000FFF79CFF00BF0948FFF7FDFE0028FAD145
:100630000648FFF7A3FF00BF0448FFF7DDFE0028D0
:10064000FAD107B000BD0000000C014000240140B9
:1006500000BFFEE770472DE9F04102460025002665
:10066000002000230024002791F803C00CF00F05A0
:1006700091F803C00CF0100CBCF1000F03D091F8FE
:1006800002C04CEA050591F800C0BCF1000F31D062
:10069000146800202BE04FF0010C0CFA00F3B1F8C5
:1006A00000C00CEA03069E4220D183004FF00F0CDD
:1006B0000CFA03F7BC4305FA03FC4CEA040491F876
:1006C00003C0BCF1280F06D14FF0010C0CFA00FC5E
:1006D000C2F814C00AE091F803C0BCF1480F05D17C
:1006E0004FF0010C0CFA00FCC2F810C0401C0828A6
:1006F000D1D31460B1F800C0BCF1FF0F34DD5468F1
:1007000000202EE000F1080C4FF0010808FA0CF36D
:10071000B1F800C00CEA03069E4221D183004FF0DD
:100720000F0C0CFA03F7BC4305FA03FC4CEA040473
:1007300091F803C0BCF1280F05D100F1080C08FAAC
:100740000CF8C2F8148091F803C0BCF1480F07D12F
:1007500000F1080C4FF0010808FA0CF8C2F81080FC
:10076000401C0828CED35460BDE8F081F0B50A469D
:10077000002300240021002500F00046B6F1004FC0
:1007800002D11D4EF16901E01B4E7168C0F30345B3
:1007900083B200F44016B6F5401F08D121F0706115
:1007A000154E766826F07066134F7E6012E000F4F6
:1007B0008016B6F5801F06D1032606FA05F4A1437C
:1007C00041F0706106E0460D360103FA06F6B143CA
:1007D00041F0706122B1460D360103FA06F631434D
:1007E00000F00046B6F1004F02D1034EF16101E086
:1007F000014E7160F0BD0000000001404161704792
:100800000161704700BFFEE700BFFEE770470000D0
:1008100010B54FF4A06000F047F8122005490870A9
:100820000120C870487000208870084600F004F865
:1008300010BD00000008002070B5002100230F2229
:10084000C47804B3154C246804F4E064C4F5E0648F
:10085000210AC1F10403CA40447804FA03F1847800
:100860001440214309010E4C0678A155047804F088
:100870001F050124AC4005786D11AD0005F1E025A0
:10088000C5F8004109E0047804F01F050124AC40DC
:10089000044D0678761145F8264070BD0CED00E059
:1008A00000E400E080E100E002490143024A1160F7
:1008B000704700000000FA050CED00E070B5002460
:1008C00019E004F1B001C8B2002100F0A7F900213D
:1008D000022000F0A3F90021102000F09FF900256C
:1008E00005E00121002000F099F9681CC5B2802DB7
:1008F000F7DB601CC4B2082CE3DB70BD08B5012136
:10090000042000F0D1F9BC20ADF8000010208DF8D3
:10091000030003208DF8020069464E48FFF79BFE56
:10092000BC214C48FFF76CFF08214A48FFF768FFDD
:10093000642000F02FFB08214648FFF75FFF64208A
:1009400000F028FB08214348FFF75AFF0021AE20A2
:1009500000F064F90021022000F060F9002110206D
:1009600000F05CF90021402000F058F900218120BE
:1009700000F054F90021CF2000F050F90021A1200F
:1009800000F04CF90021C82000F048F90021A62011
:1009900000F044F90021A82000F040F900213F2098
:1009A00000F03CF90021812000F038F90021FF20FF
:1009B00000F034F90021D32000F030F9002108467E
:1009C00000F02CF90021D52000F028F9002180202A
:1009D00000F024F90021D92000F020F90021F120B5
:1009E00000F01CF90021DA2000F018F90021122093
:1009F00000F014F90021DB2000F010F90021402064
:100A000000F00CF90021202000F008F9002102205C
:100A100000F004F900218D2000F000F900211420DD
:100A200000F0FCF80021A42000F0F8F80021A62036
:100A300000F0F4F80021AF2000F0F0F80021AF2022
:100A400000F0ECF8FFF73AFF0021084600F004F848
:100A500008BD00000008014070B504460D4605F1D0
:100A6000B001C8B2002100F0D9F8102141EA1410F9
:100A7000002100F0D3F804F00F0141F00100002143
:100A800000F0CCF870BD00002DE9F04180460E4624
:100A90001546002731464046FFF7DEFF00240AE0F6
:100AA000124A02EB8511085D012100F0B7F8781CAD
:100AB000C7B2601CC4B2102CF2DB701CC1B240463D
:100AC000FFF7CAFF00240CE06900491C074A02EB4B
:100AD0004111085D012100F0A1F8781CC7B2601C2B
:100AE000C4B2102CF0DBBDE8F0810000EE0900205C
:100AF0002DE9F04107460E46904600250024A8F156
:100B00002000C5B27F2F02DD0027B01CC6B23146DF
:100B10003846FFF7A1FF002408E004EB05110F4A57
:100B2000505C012100F07AF8601CC4B2082CF4DBA0
:100B3000701CC1B23846FFF78FFF002409E004EBB8
:100B400005110831054A505C012100F067F8601C6E
:100B5000C4B2082CF3DBBDE8F081000042130008AA
:100B60002DE9FF5F074691461D460E9E4FF0000A95
:100B7000002433E0281B401EC1B20A2000F0C2FA54
:100B8000B9FBF0F00A21B0FBF1F201FB1208BAF157
:100B9000000F13D1681EA04210DDB8F1000F0BD179
:100BA000B34606EBDB71491001FB0471C8B2202289
:100BB0000199FFF79DFF0FE04FF0010AB34606EBE6
:100BC000DB71491001FB0471C8B208F13001CAB2EF
:100BD0000199FFF78DFF00BF601CC4B2AC42C9DBB6
:100BE000BDE8FF9F2DE9F04104460F46154600265B
:100BF0000EE0AA5D39462046FFF77AFF04F10800AF
:100C0000C4B2782C02DD0024B81CC7B2701CC6B276
:100C1000A85D0028EDD1BDE8F081000070B5044664
:100C20000E4626B110211848FFF7EAFD03E0102117
:100C30001548FFF7E3FD04211348FFF7DFFD00250A
:100C400017E020211048FFF7D9FD04F0800020B103
:100C500080210D48FFF7D4FD03E080210A48FFF70B
:100C6000CDFD20210848FFF7CBFD6006040E681C6F
:100C7000C5B2082DE5DB04210348FFF7C1FD1021B3
:100C80000148FFF7BDFD70BD00080140704700003E
:100C900001460020034A506820F440400843506059
:100CA000704700000010024029B1064A92690243D1
:100CB000044B9A6104E0034A92698243014B9A61B2
:100CC000704700000010024029B1064AD268024372
:100CD000044BDA6004E0034AD2688243014BDA60D5
:100CE0007047000000100240704710B500F002F895
:100CF00010BD00000CB50020019000903348006842
:100D000040F480303149086000BF3048006800F48A
:100D1000003000900198401C0190009818B901988B
:100D2000B0F5A06FF1D12948006800F4003010B18F
:100D30000120009001E0002000900098012843D19C
:100D40002348006840F01000214908600846006808
:100D500020F0030008600846006840F002000860C8
:100D60001A48406819494860084640684860084683
:100D7000406840F4806048600846406820F47C1079
:100D800048600846406840F4E8104860084600683B
:100D900040F08070086000BF0C48006800F00070F0
:100DA0000028F9D00948406820F00300074948604E
:100DB0000846406840F00200486000BF03484068B1
:100DC00000F00C000828F9D10CBD00000010024012
:100DD00000200240042808D14FF0E021096941F0C9
:100DE00004014FF0E022116107E04FF0E0210969B2
:100DF00021F004014FF0E0221161704770470000BC
:100E000010B51348006840F0010011490860084619
:100E10004068104908400E494860084600680E497D
:100E200008400B4908600846006820F480200860EC
:100E30000846406820F4FE0048604FF41F008860B8
:100E4000FFF753FF4FF000600449086010BD000039
:100E5000001002400000FFF8FFFFF6FE08ED00E082
:100E600010B540F225511D4800F03EF810B31B4864
:100E700000F064F8C4B21A48008800F40040C8B911
:100E80001748008800F4804060B10A2C03D000208D
:100E90001349088020E01248008840F400401049BF
:100EA000088019E00D2C06D10D48008840F48040E0
:100EB0000B49088010E00A480088C0F30D0009497A
:100EC0000C5407480088401C0549088008460088E3
:100ED000C72801DD0020088010BD00000038014057
:100EE0002C080020B00A002070B502460024002320
:100EF0000025002040F66A16B14200D100BFC1F3C0
:100F0000421501F01F03012606FA03F3012D02D159
:100F10009689334006E0022D02D1168A334001E063
:100F2000968A33400C12012606FA04F416883440DF
:100F300013B10CB1012000E0002070BD014688888B
:100F4000C0F30800704700BFFEE7014600BF7047CE
:100F500010B56FF00400FFF73DFF0A4800680A492A
:100F6000B0FBF1F0094908700846007800EB400139
:100F7000C1EBC0104FF6FF7101EAC00004490880C0
:100F800010BD00001008002000127A002408002084
:100F9000260800200146114A12884A434FF0E023F8
:100FA0005A6100229A611A46126942F001021A61DE
:100FB00000BF4FF0E022106900F001021AB100F406
:100FC0008032002AF5D04FF0E022126922F00102AF
:100FD0004FF0E0231A6100229A6170472608002032
:100FE0001CB500203C49088001210846FFF75CFE43
:100FF00001213A48FFF7BAFBFFF70AFCFFF7A8FF09
:10100000FFF77CFCFFF75AFCFFF7DAFA01210C200E
:10101000FFF74AFE1820ADF8040010208DF80700F5
:1010200003208DF8060001A92D48FFF714FB4FF4AB
:101030000040ADF8040010208DF8070003208DF863
:10104000060001A92748FFF706FB08212448FFF7FF
:10105000D7FB10212248FFF7D1FB4FF40041214874
:10106000FFF7CEFBFFF72AFC002211461046FFF7E0
:101070000BFD012200211220FFF706FD02220021B4
:101080002420FFF701FD18A202210020FFF7AAFD8E
:1010900017A206212020FFF7A5FDFFF775FA072309
:1010A000012209211548FFF7FDF901211348FFF737
:1010B0005AFA0FE01248007801280BD110200423BF
:1010C00000900548028819462820FFF749FD0020B6
:1010D0000B490870EEE7000008080020000230000D
:1010E000000C0140000801404144433A0000000068
:1010F000465544414E2046414952000000240140DB
:101100000408002010B50246012000E050430B1EE9
:10111000A1F10104E1B2F9D110BD0000000000000E
:101120000000002F000000000700070000147F14DB
:101130007F1400242A7F2A120062640813230036D9
:101140004955225000000503000000001C22410008
:10115000000041221C000014083E08140008083E4C
:101160000808000000A06000000808080808000047
:1011700060600000002010080402003E5149453E16
:101180000000427F40000042615149460021414534
:101190004B31001814127F10002745454539003C9B
:1011A0004A49493000017109050300364949493669
:1011B00000064949291E0000363600000000563658
:1011C000000000081422410000141414141400003C
:1011D0004122140800020151090600324959513ECA
:1011E000007C1211127C007F49494936003E414182
:1011F0004122007F4141221C007F49494941007F33
:1012000009090901003E4149497A007F0808087F21
:101210000000417F4100002040413F01007F081451
:101220002241007F40404040007F020C027F007F4F
:101230000408107F003E4141413E007F0909090634
:10124000003E4151215E007F091929460046494967
:1012500049310001017F0101003F4040403F001F34
:101260002040201F003F4038403F006314081463B3
:1012700000070870080700615149454300007F419D
:10128000410000552A552A55000041417F000004C5
:1012900002010204004040404040000001020400FE
:1012A000002054545478007F484444380038444463
:1012B000442000384444487F0038545454180008EF
:1012C0007E0901020018A4A4A47C007F080404780D
:1012D0000000447D4000004080847D00007F102895
:1012E00044000000417F4000007C04180478007C2A
:1012F0000804047800384444443800FC24242418AA
:101300000018242418FC007C0804040800485454E5
:10131000542000043F444020003C4040207C001CFE
:101320002040201C003C4030403C00442810284411
:10133000001CA0A0A07C004464544C441414141459
:101340001414000000000000000000000000000075
:101350000000000000F80000000000000033300032
:10136000000000100C06100C060000000000000039
:10137000000040C07840C0784000043F04043F04AF
:101380000400007088FC08300000001820FF211EB7
:101390000000F008F000E018000000211C031E21EE
:1013A0001E0000F00888700000001E212324192769
:1013B000211010160E0000000000000000000000C8
:1013C0000000000000E018040200000000071820E0
:1013D000400000020418E000000000402018070050
:1013E0000000404080F0804040000202010F0102F6
:1013F0000200000000F0000000000101011F0101D7
:101400000100000000000000000080B0700000003B
:1014100000000000000000000000000101010101C7
:10142000010100000000000000000030300000005A
:101430000000000000008060180400601806010031
:10144000000000E010080810E000000F102020103D
:101450000F00001010F8000000000020203F2020A6
:10146000000000700808088870000030282422213D
:1014700030000030088888483000001820202011F3
:101480000E000000C02010F8000000070424243FD4
:10149000240000F80888880808000019212020117D
:1014A0000E0000E0108888180000000F11202011A5
:1014B0000E0000380808C83808000000003F00008F
:1014C00000000070880808887000001C222121227A
:1014D0001C0000E010080810E0000000312222117A
:1014E0000F00000000C0C00000000000003030000D
:1014F000000000000080000000000000806000008C
:1015000000000000804020100800000102040810C4
:1015100020004040404040404000040404040404D3
:101520000400000810204080000000201008040281
:101530000100007048080808F00000000030360183
:101540000000C030C828E810E00007182724231442
:101550000B000000C038E0000000203C23020227FE
:10156000382008F8888888700000203F202020114B
:101570000E00C03008080808380007182020201086
:10158000080008F808080810E000203F202020107C
:101590000F0008F88888E8081000203F202023204A
:1015A000180008F88888E8081000203F2000030091
:1015B0000000C03008080838000007182020221E4C
:1015C000020008F808000008F808203F2101012166
:1015D0003F20000808F8080800000020203F2020D5
:1015E000000000000808F8080800C08080807F0024
:1015F000000008F888C028180800203F200126387D
:10160000200008F8080000000000203F20202020D3
:10161000300008F8F800F8F80800203F003F003FCD
:10162000200008F830C00008F808203F2000071804
:101630003F00E01008080810E0000F1020202010E4
:101640000F0008F808080808F000203F21010101F8
:101650000000E01008080810E0000F18242438509B
:101660004F0008F8888888887000203F2000030C0D
:101670003020007088080808380000382021212216
:101680001C00180808F8080818000000203F200077
:10169000000008F808000008F808001F202020209B
:1016A0001F000878880000C83808000007380E01BD
:1016B0000000F80800F80008F800033C0700073CA9
:1016C0000300081868808068180820302C03032C59
:1016D00030200838C800C83808000000203F20002B
:1016E000000010080808C8380800203826212020EB
:1016F0001800000000FE020202000000007F4040CF
:101700004000000C30C0000000000000000106385E
:10171000C00000020202FE000000004040407F00C6
:1017200000000000040202020400000000000000AB
:1017300000000000000000000000808080808080A9
:101740008080000202040000000000000000000091
:1017500000000000808080800000001924222222E6
:101760003F2008F8008080000000003F1120201179
:101770000E000000008080800000000E112020205C
:101780001100000000808088F800000E1120201059
:101790003F200000808080800000001F2222222243
:1017A0001300008080F0888888180020203F2020C7
:1017B00000000000808080808000006B94949493EF
:1017C000600008F8008080800000203F2100002099
:1017D0003F2000809898000000000020203F20203B
:1017E0000000000000809898000000C08080807F8A
:1017F000000008F8000080808000203F24022D3087
:101800002000000808F8000000000020203F2020F1
:1018100000008080808080808000203F20003F206A
:10182000003F8080008080800000203F2100002059
:101830003F200000808080800000001F20202020AA
:101840001F00808000808000000080FFA120201108
:101850000E000000008080808000000E112020A07B
:10186000FF80808080008080800020203F21200039
:101870000100000080808080800000332424242424
:101880001900008080E0808000000000001F202000
:1018900000008080000000808000001F20202010B9
:1018A0003F20808080000080808000010E3008068C
:1018B000010080800080008080800F300C030C309D
:1018C0000F0000808000808080000020312E0E31CB
:1018D0002000808080000080808080818E701806CB
:1018E000010000808080808080000021302C222137
:1018F000300000000000807C020200000000003F79
:10190000404000000000FF00000000000000FF0059
:1019100000000002027C800000000040403F000008
:1019200000000006010102020404000000000000A3
:10193000000000005419000800000020B00A000058
:1019400028010008681C0008B00A002028070000D1
:101950008C01000840120003050911FF118905C31D
:1019600000E000F000F8000100083A4428FF11AA46
:10197000440001500B830138448292927401831118
:1019800020087C44FF017D7D7D04410540047D01EC
:10199000FF6E920102613F033B01017E814191494B
:1019A000F20101011BC230083F3F0303F313110191
:1019B000100601F1116181402005816111F1473369
:1019C000414107200401C12120A321C11431193153
:1019D00037040736D33303033F3F426006E0E0009D
:1019E000007FA8127FBF40040618060A10080000F6
:1019F00040407F4040A410041F204001A3201F143A
:101A00003300600E6004300C03460534C210040736
:101A100007060170090404048444444484078005D3
:101A20000484C4041501120A71112140073D0707FF
:101A3000C9200F0000101814121100000F10101010
:101A40000F0F131F1015600D081012120D00001853
:101A500000000D120A51295130015E01528001012E
:101A60003B4514047F030CA915DE1C05385454585B
:101A70002503080A2004047800003C40407C200034
:101A8000092CFFAAAAAA280800FF681006264949BF
:101A90004932101005020408100F0D6F00049D015B
:101AA000040D9D0004156343F80801240500F8188F
:101AB00060E82404806018235720202923E01021A7
:101AC000A310E01449B4313908043C886818630D48
:101AD00015FF037DEA039DFF0371144DFF031D06EF
:101AE000043D2E040942E91C0640202020C04A047F
:101AF000110721EA3E40520452600E8118712951AB
:101B0000070D4769031C060C0A0A090C0004156B33
:101B10002D00042004080F081510050809090E07F8
:101B20001D180430050909090F0A512951070DFF35
:101B300000040D220004796B4A50D27C04A24A04AE
:101B40002F07AC080203040607080911031EF084DE
:101B5000052310FF050E13F0AB052E0F07062EFF11
:101B600020060A120F49100840405F55555575046C
:101B70005B5F40AED96A24060F09498979D1021109
:101B8000201F200800FE02424ACA4A0304041242EF
:101B900002FE130C0C1340504C4340404F50505C1D
:101BA00040180513F8880122FF050E13F8F4072EDC
:101BB0001FB703227F2003109F80E2338082010C35
:101BC0000716E2A2928A8682F9050C041640807FED
:101BD00052080C0B142424A4FEA3220022CC00B62D
:101BE000051F080613093E014B070C0510FF0202F2
:101BF000020907257C539008C3FE08B207000F11A5
:101C00000444827F01808040432C10284681A03DFF
:101C1000B0074304FC070110A0422001523F080115
:101C20001060140984E45C44C48082FE050310FE45
:101C300082602C0902017F10103F80609004051320
:101C40007F0C0E11FE225A86100C242425262424F3
:101C500014A3030C0F11FF0408078041310F010189
:081C60003F414171C303000084
:04000005080000ED02
:00000001FF
